{"abi":[{"type":"function","name":"campaignCount","inputs":[],"outputs":[{"name":"","type":"uint256","internalType":"uint256"}],"stateMutability":"view"},{"type":"function","name":"createCampaign","inputs":[{"name":"title","type":"string","internalType":"string"},{"name":"description","type":"string","internalType":"string"},{"name":"goal","type":"uint256","internalType":"uint256"},{"name":"deadline","type":"uint256","internalType":"uint256"}],"outputs":[],"stateMutability":"nonpayable"},{"type":"function","name":"donate","inputs":[{"name":"campaignId","type":"uint256","internalType":"uint256"}],"outputs":[],"stateMutability":"payable"},{"type":"function","name":"getCampaign","inputs":[{"name":"campaignId","type":"uint256","internalType":"uint256"}],"outputs":[{"name":"owner","type":"address","internalType":"address"},{"name":"title","type":"string","internalType":"string"},{"name":"description","type":"string","internalType":"string"},{"name":"goal","type":"uint256","internalType":"uint256"},{"name":"deadline","type":"uint256","internalType":"uint256"},{"name":"raised","type":"uint256","internalType":"uint256"},{"name":"withdrawn","type":"bool","internalType":"bool"},{"name":"contributors","type":"address[]","internalType":"address[]"}],"stateMutability":"view"},{"type":"function","name":"getContribution","inputs":[{"name":"campaignId","type":"uint256","internalType":"uint256"},{"name":"contributor","type":"address","internalType":"address"}],"outputs":[{"name":"","type":"uint256","internalType":"uint256"}],"stateMutability":"view"},{"type":"function","name":"refund","inputs":[{"name":"campaignId","type":"uint256","internalType":"uint256"}],"outputs":[],"stateMutability":"nonpayable"},{"type":"function","name":"withdraw","inputs":[{"name":"campaignId","type":"uint256","internalType":"uint256"}],"outputs":[],"stateMutability":"nonpayable"},{"type":"event","name":"CampaignCreated","inputs":[{"name":"campaignId","type":"uint256","indexed":true,"internalType":"uint256"},{"name":"owner","type":"address","indexed":true,"internalType":"address"},{"name":"goal","type":"uint256","indexed":false,"internalType":"uint256"},{"name":"deadline","type":"uint256","indexed":false,"internalType":"uint256"}],"anonymous":false},{"type":"event","name":"DonationReceived","inputs":[{"name":"campaignId","type":"uint256","indexed":true,"internalType":"uint256"},{"name":"donor","type":"address","indexed":true,"internalType":"address"},{"name":"amount","type":"uint256","indexed":false,"internalType":"uint256"}],"anonymous":false},{"type":"event","name":"FundsWithdrawn","inputs":[{"name":"campaignId","type":"uint256","indexed":true,"internalType":"uint256"},{"name":"owner","type":"address","indexed":true,"internalType":"address"},{"name":"amount","type":"uint256","indexed":false,"internalType":"uint256"}],"anonymous":false},{"type":"event","name":"RefundIssued","inputs":[{"name":"campaignId","type":"uint256","indexed":true,"internalType":"uint256"},{"name":"contributor","type":"address","indexed":true,"internalType":"address"},{"name":"amount","type":"uint256","indexed":false,"internalType":"uint256"}],"anonymous":false}],"bytecode":{"object":"0x608060405234801561001057600080fd5b50611014806100206000396000f3fe6080604052600436106100705760003560e01c80637274e30d1161004e5780637274e30d146100f4578063a318f26914610118578063e081dbf914610138578063f14faf6f1461015857600080fd5b8063278ecde1146100755780632e1a7d4d146100975780635598f8cc146100b7575b600080fd5b34801561008157600080fd5b50610095610090366004610c1a565b61016b565b005b3480156100a357600080fd5b506100956100b2366004610c1a565b610400565b3480156100c357600080fd5b506100d76100d2366004610c1a565b610696565b6040516100eb989796959493929190610c79565b60405180910390f35b34801561010057600080fd5b5061010a60025481565b6040519081526020016100eb565b34801561012457600080fd5b50610095610133366004610d66565b6108b0565b34801561014457600080fd5b5061010a610153366004610de4565b610a11565b610095610166366004610c1a565b610a6c565b60035460ff16156101c35760405162461bcd60e51b815260206004820152601f60248201527f5265656e7472616e637947756172643a207265656e7472616e742063616c6c0060448201526064015b60405180910390fd5b6003805460ff191660011790558080158015906101e257506002548111155b6101fe5760405162461bcd60e51b81526004016101ba90610e20565b6000828152602081905260409020600481015442116102575760405162461bcd60e51b815260206004820152601560248201527443616d706169676e207374696c6c2061637469766560581b60448201526064016101ba565b80600301548160050154106102ba5760405162461bcd60e51b8152602060048201526024808201527f43616d706169676e207375636365656465642c20726566756e64732064697361604482015263189b195960e21b60648201526084016101ba565b6000838152600160209081526040808320338452909152902054806103195760405162461bcd60e51b8152602060048201526015602482015274139bc8191bdb985d1a5bdb881d1bc81c99599d5b99605a1b60448201526064016101ba565b60008481526001602090815260408083203380855292528083208390555183908381818185875af1925050503d8060008114610371576040519150601f19603f3d011682016040523d82523d6000602084013e610376565b606091505b50509050806103b75760405162461bcd60e51b815260206004820152600d60248201526c1499599d5b990819985a5b1959609a1b60448201526064016101ba565b604051828152339086907f7a482fdeb6bc9a1376f597068a214a7a39472bb2eff1b8cad21ba04f49ddca1b906020015b60405180910390a350506003805460ff19169055505050565b60035460ff16156104535760405162461bcd60e51b815260206004820152601f60248201527f5265656e7472616e637947756172643a207265656e7472616e742063616c6c0060448201526064016101ba565b6003805460ff1916600117905580801580159061047257506002548111155b61048e5760405162461bcd60e51b81526004016101ba90610e20565b600082815260208190526040902080546001600160a01b031633146104f55760405162461bcd60e51b815260206004820181905260248201527f4f6e6c792063616d706169676e206f776e65722063616e20776974686472617760448201526064016101ba565b80600301548160050154101561054d5760405162461bcd60e51b815260206004820152601860248201527f46756e64696e6720676f616c206e6f742072656163686564000000000000000060448201526064016101ba565b600681015460ff16156105ac5760405162461bcd60e51b815260206004820152602160248201527f46756e6473206861766520616c7265616479206265656e2077697468647261776044820152603760f91b60648201526084016101ba565b60068101805460ff19166001179055600581015481546040516000916001600160a01b03169083908381818185875af1925050503d806000811461060c576040519150601f19603f3d011682016040523d82523d6000602084013e610611565b606091505b50509050806106565760405162461bcd60e51b815260206004820152601160248201527015da5d1a191c985dd85b0819985a5b1959607a1b60448201526064016101ba565b82546040518381526001600160a01b039091169086907ff440aec6b52895984d061d622e6edeba6210f7c3e059be920663140c084560d7906020016103e7565b60006060806000806000806060886000811180156106b657506002548111155b6106d25760405162461bcd60e51b81526004016101ba90610e20565b60008a8152602081905260409020805460038201546004830154600584015460068501546001860180546001600160a01b03909616959094600288019490939092909160ff909116906007890190879061072b90610e57565b80601f016020809104026020016040519081016040528092919081815260200182805461075790610e57565b80156107a45780601f10610779576101008083540402835291602001916107a4565b820191906000526020600020905b81548152906001019060200180831161078757829003601f168201915b505050505096508580546107b790610e57565b80601f01602080910402602001604051908101604052809291908181526020018280546107e390610e57565b80156108305780601f1061080557610100808354040283529160200191610830565b820191906000526020600020905b81548152906001019060200180831161081357829003601f168201915b505050505095508080548060200260200160405190810160405280929190818152602001828054801561088c57602002820191906000526020600020905b81546001600160a01b0316815260019091019060200180831161086e575b50505050509050995099509950995099509950995099505050919395975091939597565b600082116109005760405162461bcd60e51b815260206004820152601b60248201527f476f616c206d7573742062652067726561746572207468616e2030000000000060448201526064016101ba565b42811161094f5760405162461bcd60e51b815260206004820152601e60248201527f446561646c696e65206d75737420626520696e2074686520667574757265000060448201526064016101ba565b6001600260008282546109629190610e91565b9091555050600254600090815260208190526040902080546001600160a01b0319163317815560018101610997878983610f1d565b50600281016109a7858783610f1d565b5060038101839055600481018290556000600582015560068101805460ff1916905560025460408051858152602081018590523392917f91b289a829e71d811b8c69e4a24ba2d40d115d8a236e9a724cb3bb2d43cf7223910160405180910390a350505050505050565b600082600081118015610a2657506002548111155b610a425760405162461bcd60e51b81526004016101ba90610e20565b505060009182526001602090815260408084206001600160a01b0393909316845291905290205490565b80600081118015610a7f57506002548111155b610a9b5760405162461bcd60e51b81526004016101ba90610e20565b60008281526020819052604090206004810154421115610afd5760405162461bcd60e51b815260206004820152601860248201527f43616d706169676e20646561646c696e6520706173736564000000000000000060448201526064016101ba565b60003411610b4d5760405162461bcd60e51b815260206004820152601f60248201527f446f6e6174696f6e206d7573742062652067726561746572207468616e20300060448201526064016101ba565b60008381526001602090815260408083203384529091528120549003610b9557600781018054600181018255600091825260209091200180546001600160a01b031916331790555b600083815260016020908152604080832033845290915281208054349290610bbe908490610e91565b9250508190555034816005016000828254610bd99190610e91565b9091555050604051348152339084907f0b5b4c52969ff7329ecf7ee536409fda87812b15a8622bc6e8cdeab3aee14a269060200160405180910390a3505050565b600060208284031215610c2c57600080fd5b5035919050565b6000815180845260005b81811015610c5957602081850181015186830182015201610c3d565b506000602082860101526020601f19601f83011685010191505092915050565b6001600160a01b038981168252610100602080840182905260009290610ca18584018d610c33565b92508483036040860152610cb5838c610c33565b606086018b9052608086018a905260a0860189905287151560c087015285810360e0870152865180825282880194509082019060005b81811015610d09578551851683529483019491830191600101610ceb565b50909e9d5050505050505050505050505050565b60008083601f840112610d2f57600080fd5b50813567ffffffffffffffff811115610d4757600080fd5b602083019150836020828501011115610d5f57600080fd5b9250929050565b60008060008060008060808789031215610d7f57600080fd5b863567ffffffffffffffff80821115610d9757600080fd5b610da38a838b01610d1d565b90985096506020890135915080821115610dbc57600080fd5b50610dc989828a01610d1d565b979a9699509760408101359660609091013595509350505050565b60008060408385031215610df757600080fd5b8235915060208301356001600160a01b0381168114610e1557600080fd5b809150509250929050565b60208082526017908201527f43616d706169676e20646f6573206e6f74206578697374000000000000000000604082015260600190565b600181811c90821680610e6b57607f821691505b602082108103610e8b57634e487b7160e01b600052602260045260246000fd5b50919050565b80820180821115610eb257634e487b7160e01b600052601160045260246000fd5b92915050565b634e487b7160e01b600052604160045260246000fd5b601f821115610f1857600081815260208120601f850160051c81016020861015610ef55750805b601f850160051c820191505b81811015610f1457828155600101610f01565b5050505b505050565b67ffffffffffffffff831115610f3557610f35610eb8565b610f4983610f438354610e57565b83610ece565b6000601f841160018114610f7d5760008515610f655750838201355b600019600387901b1c1916600186901b178355610fd7565b600083815260209020601f19861690835b82811015610fae5786850135825560209485019460019092019101610f8e565b5086821015610fcb5760001960f88860031b161c19848701351681555b505060018560011b0183555b505050505056fea26469706673582212202c92b63ddcb4924d66efdf32fc58e7368ab86d4b98f00cf210996f054d871b1664736f6c63430008130033","linkReferences":{}},"methodIdentifiers":{"campaignCount()":"7274e30d","createCampaign(string,string,uint256,uint256)":"a318f269","donate(uint256)":"f14faf6f","getCampaign(uint256)":"5598f8cc","getContribution(uint256,address)":"e081dbf9","refund(uint256)":"278ecde1","withdraw(uint256)":"2e1a7d4d"},"id":16}